:020000040800F2
:1000000000500020CD1700081D1800081D1800081A
:100010001D1800081D1800081D1800080000000029
:100020000000000000000000000000001D18000893
:100030001D180008000000001D1800081D18000809
:100040001D1800081D1800081D1800081D180008BC
:100050001D1800081D180008E50D0008090E00080D
:100060002D0E0008510E0008750E00081D1800081E
:100070001D1800081D1800081D1800081D1800088C
:100080001D1800081D1800081D1800081D1800087C
:100090001D1800081D1800081D180008990E0008FA
:1000A0001D1800081D1800081D1800081D1800085C
:1000B0001D1800081D1800081D1800081D1800084C
:1000C0001D1800081D1800081D180008C51200089A
:1000D0001D1300088117000895170008A9170008CC
:1000E000490F00081D180008000000001D18000836
:1000F0001D1800081D1800081D1800081D1800080C
:100100001D1800081D1800081D1800081D180008FB
:100110001D1800081D1800081D1800081D180008EB
:100120001D1800081D1800081D1800081D180008DB
:1001300010B5054C237833B9044B13B10448AFF321
:1001400000800123237010BD1C000020000000006F
:100150006818000808B5034B1BB103490348AFF307
:10016000008008BD00000000200000206818000882
:1001700080B588B000AF00233B7300237B730F4B27
:100180003B6106233B7501233B7601237B760C4BB9
:10019000FB610521012000F03FFB0B21012000F055
:1001A00089F800F0FFF800F0D1FB07F10C031846C6
:1001B00000F0F8FB00BF2037BD4680BD000C0140B9
:1001C0008102000880B500AF284B1A78284B1B78B5
:1001D0009A421ED0254B1A78254B1A70234B1B7858
:1001E000012B09D1012000F04FF9224800F0CCFB8F
:1001F000204800F0F5FA0CE01C4B1B78002B08D1CE
:10020000012000F041F91C4800F0BEFB1A4800F044
:10021000E7FA0B21012000F083F803461A46174B3A
:100220001A70164B1B78012B0BD1104B1B78002B2F
:1002300007D10521012000F025FB0C4B01221A708B
:100240000EE00E4B1B78012B0AD1084B1B78012BBB
:1002500006D10521012000F047FB044B00221A7053
:10026000962000F0BAFF00BF80BD00BF390000201B
:1002700000000020801800088C18000838000020BA
:1002800080B500AF0A4B1B78002B07D10521012058
:1002900000F0F8FA064B01221A7006E00521012051
:1002A00000F022FB024B00221A7000BF80BD00BF8D
:1002B0003900002080B584B000AF03460A46FB71C8
:1002C0001346BB710023FB60BB799BB2BB8101234A
:1002D000BB73FB79002B06D107F10C0319460D48BF
:1002E00000F09AFE12E0FB79012B06D107F10C0316
:1002F0001946094800F090FE08E0FB79022B05D171
:1003000007F10C031946054800F086FE00BF1037C0
:10031000BD4680BD00080140000C014000100140B6
:1003200080B582B000AF03460A46FB711346BB712D
:10033000FB79002B0CD1BB799BB21946164800F013
:1003400013FF0346002B0CBF01230023DBB21FE089
:10035000FB79012B0CD1BB799BB219460F4800F0F9
:1003600003FF0346002B0CBF01230023DBB20FE089
:10037000FB79022B0CD1BB799BB21946084800F0DF
:10038000F3FE0346002B0CBF01230023DBB2FFE783
:1003900018460837BD4680BD00080140000C0140EA
:1003A0000010014080B586B000AF2F4B1B687B6109
:1003B0002E4B1B683B612E4B1B68FB602D4B1B6853
:1003C000BB602D4B1B687B602C4B1B683B6007F1AF
:1003D000140319462A4800F01FFE07F110031946BE
:1003E000274800F019FE07F10C031946244800F0D5
:1003F00013FE07F108031946214800F00DFE3B1DCE
:100400001946204800F008FE3B4619461D4800F0FA
:1004100003FE032000F038F8042000F0DEFE032085
:1004200000F032F8042000F0D8FE032000F02CF891
:10043000042000F0D2FE022000F026F8282000F070
:1004400023F8082000F020F8012000F01DF8062015
:1004500000F01AF8012000F017F80C2000F014F852
:1004600000BF1837BD4680BD981800089C180008CA
:10047000A0180008A4180008A8180008AC18000864
:10048000000C01400008014080B582B000AF034677
:10049000FB71664BDB68654A23F40063D360FB792C
:1004A000DB09DBB203F00103002B06D1604BDB68F4
:1004B0005F4A23F48053D36005E05D4BDB685C4A00
:1004C00043F48053D360FB799B09DBB203F0010353
:1004D000002B06D1564BDB68554A23F40053D360FA
:1004E00005E0534BDB68524A43F40053D360FB7979
:1004F0005B09DBB203F00103002B06D14C4BDB6838
:100500004B4A23F48043D36005E0494BDB68484AFB
:1005100043F48043D360FB791B09DBB203F0010392
:10052000002B06D1424BDB68414A23F40043D360E1
:1005300005E03F4BDB683E4A43F40043D3603B4B4E
:10054000DB683A4A43F48073D360012000F045FE33
:10055000364BDB68354A23F48073D360012000F00A
:100560003CFEFB79DB08DBB203F00103002B06D174
:100570002F4BDB682E4A23F48053D36005E02C4BCD
:10058000DB682B4A43F48053D360FB799B08DBB2D2
:1005900003F00103002B06D1254BDB68244A23F42A
:1005A0000053D36005E0224BDB68214A43F400533B
:1005B000D360FB795B08DBB203F00103002B06D1AB
:1005C0001B4BDB681A4A23F48043D36005E0184BC9
:1005D000DB68174A43F48043D360FB7903F00103DF
:1005E000002B06D1124BDB68114A23F40043D36081
:1005F00005E00F4BDB680E4A43F40043D3600B4B1E
:10060000DB680A4A43F48073D360012000F0E5FD03
:10061000064BDB68054A23F48073D360012000F0A9
:10062000DCFD00BF0837BD4680BD00BF00080140AB
:10063000000C014080B582B000AF0346FB71664BF1
:10064000DB68654A43F40063D360FB79DB09DBB206
:1006500003F00103002B06D1604BDB685F4A23F4F3
:100660008053D36005E05D4BDB685C4A43F4805304
:10067000D360FB799B09DBB203F00103002B06D1A9
:10068000564BDB68554A23F40053D36005E0534BC7
:10069000DB68524A43F40053D360FB795B09DBB259
:1006A00003F00103002B06D14C4BDB684B4A23F4CB
:1006B0008043D36005E0494BDB68484A43F48043FC
:1006C000D360FB791B09DBB203F00103002B06D1D9
:1006D000424BDB68414A23F40043D36005E03F4BC3
:1006E000DB683E4A43F40043D3603B4BDB683A4A45
:1006F00043F48073D360012000F06FFD364BDB685C
:10070000354A23F48073D360012000F066FDFB7945
:10071000DB08DBB203F00103002B06D12F4BDB68B3
:100720002E4A23F48053D36005E02C4BDB682B4A20
:1007300043F48053D360FB799B08DBB203F00103E1
:10074000002B06D1254BDB68244A23F40053D360E9
:1007500005E0224BDB68214A43F40053D360FB7968
:100760005B08DBB203F00103002B06D11B4BDB68F7
:100770001A4A23F48043D36005E0184BDB68174A1C
:1007800043F48043D360FB7903F00103002B06D1CF
:10079000124BDB68114A23F40043D36005E00F4B92
:1007A000DB680E4A43F40043D3600B4BDB680A4A14
:1007B00043F48073D360012000F00FFD064BDB682B
:1007C000054A23F48073D360012000F006FD00BFCA
:1007D0000837BD4680BD00BF00080140000C014045
:1007E00080B584B000AF78600023FB7309E0FB7B29
:1007F0007A6813441B781846FFF71CFFFB7B013314
:10080000FB73FB7B7A6813441B78002BEFD100BF8E
:1008100000BF1037BD4680BD80B584B000AF034631
:100820000A46FB711346BB71BB799BB2BB810423A3
:10083000BB730123FB73FB79002B06D107F10C037B
:1008400019460D4800F0E8FB12E0FB79012B06D1B8
:1008500007F10C031946094800F0DEFB08E0FB79BC
:10086000022B05D107F10C031946054800F0D4FB13
:1008700000BF1037BD4680BD00080140000C01409C
:100880000010014080B582B000AF03460A46FB71FC
:100890001346BB71FB79002B07D1BB799BB20122B8
:1008A00019460E4800F075FC14E0FB79012B07D1C6
:1008B000BB799BB201221946094800F06AFC09E0A5
:1008C000FB79022B06D1BB799BB201221946054860
:1008D00000F05FFC00BF0837BD4680BD0008014046
:1008E000000C01400010014080B582B000AF03460B
:1008F0000A46FB711346BB71FB79002B07D1BB790C
:100900009BB2002219460E4800F043FC14E0FB792C
:10091000012B07D1BB799BB200221946094800F090
:1009200038FC09E0FB79022B06D1BB799BB200228F
:100930001946054800F02DFC00BF0837BD4680BDB4
:1009400000080140000C01400010014080B586B055
:1009500000AF3B1D00221A605A609A60DA601A618B
:10096000084B7B6002233B720123BB724FF416538A
:10097000FB603B1D184600F0FDFC00BF1837BD466C
:1009800080BD00BF0038014080B582B000AF786004
:100990007968034800F0D5FE00BF0837BD4680BD2A
:1009A0000038014080B584B000AF7860A04B9B69EF
:1009B0009F4A43F0010393610023BB607B685B782F
:1009C0009BB23B810823BB727B685B6807F108021E
:1009D0001146184600F020FB7B685B68954A9342FD
:1009E00002D10023FB810EE07B685B68924A934250
:1009F00002D10123FB8106E07B685B688F4A93424A
:100A000001D11023FB817B681B78032B19D88C4BF9
:100A10009B687A68127892000F2101FA02F2D243A1
:100A20001146874A0B409360854B9B68F9897A6829
:100A30001278920001FA02F21146814A0B43936048
:100A40005EE07B681B78072B1BD87D4BDB687A68E0
:100A50001278043A92000F2101FA02F2D2431146B1
:100A6000774A0B40D360764BDB68F9897A68127855
:100A7000043A920001FA02F21146714A0B43D36024
:100A80003EE07B681B780B2B1BD86D4B1B697A688B
:100A90001278083A92000F2101FA02F2D24311466D
:100AA000674A0B401361664B1B69F9897A681278B3
:100AB000083A920001FA02F21146614A0B431361AF
:100AC0001EE07B681B780F2B1AD85D4B5B697A6838
:100AD00012780C3A92000F2101FA02F2D243114629
:100AE000574A0B405361564B5B69F9897A68127813
:100AF0000C3A920001FA02F21146514A0B4353613B
:100B00007B681B7B002B17D14E4B9B687A68127851
:100B1000114601228A40D24311464A4A0B40936053
:100B2000484B9B687A681278114601228A40114628
:100B3000444A0B43936049E07B681B7B012B17D130
:100B4000404BDB687A681278114601228A40D24312
:100B500011463C4A0B40D3603A4BDB687A68127806
:100B6000114601228A401146364A0B43D3602DE0DC
:100B7000344B9B687A681278114601228A40D2432E
:100B80001146304A0B4093602E4B9B687A6812786E
:100B9000114601228A4011462A4A0B439360294B91
:100BA000DB687A681278114601228A40D2431146E6
:100BB000244A0B40D360234BDB687A6812781146D5
:100BC00001228A4011461F4A0B43D3607B685B7B3E
:100BD000012B10D11B4B1B687A6812781146012239
:100BE0008A401146174A0B4313607B681B781846EE
:100BF00000F02CF810E0134B1B687A68127811464D
:100C000001228A40D24311460E4A0B4013607B6892
:100C10001B78184600F080F87B681B7819467B68C3
:100C20001B69094A42F8213000BF1037BD4680BD1C
:100C30000010024000080140000C0140001001407B
:100C400000000140000401403C00002080B483B05B
:100C500000AF0346FB71FB790F2B54D801A252F869
:100C600023F000BFA50C0008B30C0008C10C00085D
:100C7000CF0C0008DD0C0008EB0C0008EB0C0008A2
:100C8000EB0C0008EB0C0008EB0C0008F90C00085A
:100C9000F90C0008F90C0008F90C0008F90C000820
:100CA000F90C00081A4B1B68194A43F04003136003
:100CB00029E0174B1B68164A43F08003136022E0BB
:100CC000134B1B68124A43F4807313601BE0104BF4
:100CD0001B680F4A43F40073136014E00C4B1B684D
:100CE0000B4A43F4806313600DE0094B1B68084A0C
:100CF00043F40003136006E0064B1B68054A43F407
:100D00008073136000BF00BF0C37BD4680BC7047C6
:100D100000E100E004E100E080B483B000AF0346EE
:100D2000FB71FB790F2B54D801A252F823F000BFBE
:100D3000710D00087F0D00088D0D00089B0D000847
:100D4000A90D0008B70D0008B70D0008B70D000881
:100D5000B70D0008B70D0008C50D0008C50D000847
:100D6000C50D0008C50D0008C50D0008C50D00081B
:100D70001A4B1B68194A43F04003136029E0174BD4
:100D80001B68164A43F08003136022E0134B1B6874
:100D9000124A43F4807313601BE0104B1B680F4A28
:100DA00043F40073136014E00C4B1B680B4A43F4CC
:100DB000806313600DE0094B1B68084A43F400038D
:100DC000136006E0064B1B68054A43F4807313600A
:100DD00000BF00BF0C37BD4680BC704780E100E01B
:100DE00084E100E080B500AF054B1B689847054BD8
:100DF0005B69044A43F00103536100BF80BD00BF3B
:100E00003C0000200004014080B500AF054B5B684A
:100E10009847054B5B69044A43F00203536100BFE6
:100E200080BD00BF3C0000200004014080B500AF41
:100E3000054B9B689847054B5B69044A43F00403E4
:100E4000536100BF80BD00BF3C0000200004014092
:100E500080B500AF054BDB689847054B5B69044ADA
:100E600043F00803536100BF80BD00BF3C00002079
:100E70000004014080B500AF054B1B699847054B46
:100E80005B69044A43F01003536100BF80BD00BF9B
:100E90003C0000200004014080B500AF284B5B6996
:100EA0005B0903F00103002B08D0264B5B699847D0
:100EB000234B5B69224A43F020035361204B5B695B
:100EC0009B0903F00103002B08D01E4B9B69984738
:100ED0001B4B5B691A4A43F040035361184B5B6933
:100EE000DB0903F00103002B08D0164BDB699847A0
:100EF000134B5B69124A43F080035361104B5B69EB
:100F00001B0A03F00103002B08D00E4B1B6A984705
:100F10000B4B5B690A4A43F480735361084B5B696E
:100F20005B0A03F00103002B08D0064B5B6A98476D
:100F3000034B5B69024A43F40073536100BF80BDF9
:100F4000000401403C00002080B500AF304B5B69DD
:100F50009B0A03F00103002B08D02E4B9B6A984795
:100F60002B4B5B692A4A43F480635361284B5B69CE
:100F7000DB0A03F00103002B08D0264BDB6A9847FD
:100F8000234B5B69224A43F400635361204B5B6946
:100F90001B0B03F00103002B08D01E4B1B6B984763
:100FA0001B4B5B691A4A43F480535361184B5B69CE
:100FB0005B0B03F00103002B08D0164B5B6B9847CB
:100FC000134B5B69124A43F400535361104B5B6946
:100FD0009B0B03F00103002B08D00E4B9B6B984733
:100FE0000B4B5B690A4A43F480435361084B5B69CE
:100FF000DB0B03F00103002B08D0064BDB6B98479B
:10100000034B5B69024A43F40043536100BF80BD58
:10101000000401403C00002080B485B000AF78603F
:1010200039600023FB604F4B9B694E4A43F0040339
:1010300093614C4B9B694B4A43F008039361494BC6
:101040009B69484A43F0100393613B689B78052BEA
:101050000BD03B689B78042B07D03B689B78062B12
:1010600003D03B689B78072B0AD13B689B78043BF5
:101070009B003A68D278134303F00F03FB6037E01C
:101080003B689B78002B03D03B689B78012B06D1F3
:101090003B689B789B0003F00F03FB6028E03B68F4
:1010A0009B78022B0CD10823FB607B68DB683A68D5
:1010B0001288114601228A401A437B68DA6017E0E1
:1010C0003B689B78032B0DD10823FB607B68DB68B2
:1010D0003A681288114601228A40D2431A407B683E
:1010E000DA6005E03B689B78082B01D10423FB60A4
:1010F0003B681B88072B17D87B681B683A681288E7
:1011000092000F2101FA02F2D2431A407B681A6062
:101110007B681A683B681B889B00F96801FA03F337
:101120001A437B681A6018E07B685B683A6812882B
:10113000083A92000F2101FA02F2D2431A407B686A
:101140005A607B685A683B681B88083B9B00F968BB
:1011500001FA03F31A437B685A6000BF1437BD4697
:1011600080BC70470010024080B485B000AF78604A
:101170000B467B807B689A687B8822FA03F3DBB29C
:1011800003F00103FB73FB7B18461437BD4680BC9C
:10119000704780B483B000AF78600B467B80134605
:1011A0007B707B78002B0AD17B68DB687A88012111
:1011B00001FA02F2D2431A407B68DA6008E07B68E9
:1011C000DB687A88012101FA02F21A437B68DA604F
:1011D00000BF0C37BD4680BC704780B485B000AFFF
:1011E00078600023FB6003E000BFFB680133FB6015
:1011F0007B684FF4487203FB02F2FB689A42F3D813
:1012000000BF00BF1437BD4680BC704780B400AF3C
:10121000034B5B68034B1846BD4680BC704700BF5C
:101220000010024000127A0080B582B000AF094B76
:101230005B681B09DBB203F00F03FB71FFF7E6FFEE
:101240000246FB790449CB5C22FA03F318460837BF
:10125000BD4680BD001002400C00002080B582B069
:1012600000AF094B5B681B0ADBB203F00703FB719D
:10127000FFF7DAFF0246FB790449CB5C22FA03F35D
:1012800018460837BD4680BD00100240040000200B
:1012900080B582B000AF094B5B68DB0ADBB203F0BC
:1012A0000703FB71FFF7C0FF0246FB790449CB5CE3
:1012B00022FA03F318460837BD4680BD00100240ED
:1012C0000400002080B582B000AF124B9B685B0821
:1012D00003F00103DAB23B7962F300033B710D4B7B
:1012E0009B6803F00103DAB23B7962F341033B717F
:1012F000084B9B681B0903F00103DAB23B7962F3E8
:1013000000033B71044B1B683879984700BF0837CE
:10131000BD4680BD003001407800002080B582B01D
:1013200000AF124B9B685B0803F00103DAB23B7914
:1013300062F300033B710D4B9B6803F00103DAB2CB
:101340003B7962F341033B71084B9B681B0903F037
:101350000103DAB23B7962F300033B71044B5B6833
:101360003879984700BF0837BD4680BD0038004037
:101370007800002080B588B000AF78607B681B687B
:10138000704A934252D1704B9B696F4A43F00403F9
:1013900093616D4B9B696C4A43F0010393616A4B07
:1013A0009B69694A43F480439361FFF771FF0346E9
:1013B000664A13607B681B69654A13607B689B798A
:1013C000002B0ED1634B1B68624A43F0200313606D
:1013D0007B681B68DA687B681B6842F02002DA6071
:1013E0000DE05D4B1B685C4A43F0200313607B6893
:1013F0001B68DA687B681B6822F02002DA60092328
:101400003B820623BB740123FB740A23BB810123A7
:10141000BB7307F1100319465048FFF7FDFD07F1B4
:101420000C0319464D48FFF7F7FDC1E07B681B68C8
:101430004B4A934252D1444B9B69434A43F00403C5
:101440009361414B9B69404A43F0010393613E4BDA
:10145000DB693D4A43F40033D361FFF7FFFE0346E7
:101460003A4A13607B681B69394A53607B689B79F1
:10147000002B0ED1374B1B68364A43F040031360F4
:101480007B681B68DA687B681B6842F02002DA60C0
:101490000DE0314B1B68304A43F0400313607B681A
:1014A0001B68DA687B681B6822F02002DA6002237E
:1014B0003B820623BB740123FB740323BB810123FE
:1014C000BB7307F1100319462448FFF7A5FD07F188
:1014D0000C0319462148FFF79FFD69E07B681B68F4
:1014E000204A934264D1184B9B69174A43F0080382
:1014F0009361154B9B69144A43F001039361124BAE
:10150000DB69114A43F48023D361FFF7A7FE03464A
:101510000E4A13607B681B690D4A93607B689B7958
:10152000002B21D10B4B1B680A4A43F08003136048
:101530007B681B68DA687B681B6842F02002DA600F
:1015400020E000BF00380140001002408C00002065
:101550008000002004E100E084E100E00008014098
:101560000044004000480040624B1B68614A43F061
:10157000800313607B681B68DA687B681B6822F055
:101580002002DA600A233B820623BB740123FB742A
:101590000B23BB810123BB7307F110031946564887
:1015A000FFF73AFD07F10C0319465348FFF734FDE6
:1015B0007B681B68DA687B681B6822F48052DA60FB
:1015C0007B681B68DA687B681B7B1B0319467B689A
:1015D0001B680A43DA607B681B681A697B681B68B2
:1015E00022F440521A617B681B681A697B685B7B36
:1015F0001B0319467B681B680A431A617B681B79C9
:10160000002B10D17B681B68DA687B681B6842F08E
:101610000802DA607B681B68DA687B681B6822F066
:101620000402DA6028E07B681B79012B10D17B680B
:101630001B68DA687B681B6822F00802DA607B6846
:101640001B68DA687B681B6842F00402DA6013E00A
:101650007B681B79022B0FD17B681B68DA687B687B
:101660001B6842F00802DA607B681B68DA687B68F6
:101670001B6842F00402DA60204B1A6813469B0094
:1016800013449A001A447B689B689B00B2FBF3F3F7
:101690007B617B691A4AA2FB03235B09FB61FB693F
:1016A000642202FB03F37A69D31A1B013233144A12
:1016B000A2FB03235B09BB61BB690F2B04D9FB6948
:1016C0000133FB610023BB61FB691901BB6903F0B6
:1016D0000F027B681B680A439A607B681B68DA68A4
:1016E0007B681B6842F40052DA6000BF2037BD46B9
:1016F00080BD00BF84E100E0000C01408C000020B0
:101700001F85EB5180B483B000AF78600B467B80BF
:1017100000BF7B681B68DB0903F00103002BF8D0D6
:101720007A887B685A6000BF7B681B689B0903F05E
:101730000103002BF8D000BF00BF0C37BD4680BCB2
:10174000704780B584B000AF786039600023FB73C8
:101750000BE0FB7B3A6813441B789BB21946786810
:10176000FFF7D0FFFB7B0133FB73FB7B3A6813442D
:101770001B78002BEDD100BF00BF1037BD4680BDE8
:1017800080B500AF024B1B68984700BF80BD00BF0B
:101790008000002080B500AF024B5B68984700BF17
:1017A00080BD00BF8000002080B500AF024B9B6869
:1017B000984700BF80BD00BF8000002080B500AF0B
:1017C000FEF7D6FCFEF7FEFCFCE700000D48854660
:1017D000AFF300800C480D490D4A002302E0D458B5
:1017E000C4500433C4188C42F9D30A4A0A4C00236B
:1017F00001E013600432A242FBD300F011F8FFF7BE
:10180000DDFFFEE700500020000000201C0000204B
:10181000B81800081C00002090000020FEE700001F
:1018200070B500260C4D0D4C641BA410A64209D1C6
:1018300000F01AF800260A4D0A4C641BA410A642B8
:1018400005D170BD55F8043B98470136EEE755F8D1
:10185000043B98470136F2E7B0180008B0180008BA
:10186000B0180008B4180008F8B500BFF8BC08BCF0
:101870009E467047F8B500BFF8BC08BC9E4670474E
:101880004C696768743A204F4E2000004C696768C5
:10189000743A204F464620000C0004010D0004015C
:1018A0000E0004010F0004010B00040108000401F4
:0418B00055010008D6
:0418B40031010008F6
:1018B800FF00000000000000010203040000000017
:0C18C800000000000102030406070809EC
:04000005080017CD0B
:00000001FF
